{
  "transactions": [
    {
      "hash": "0xad58014b7d6c39fea731849db960d976ed05798f95ccba357b20aa807bbfe241",
      "transactionType": "CALL",
      "contractName": null,
      "contractAddress": "0x19223058050d2c91e6e42158f0760340fb3d41c3",
      "function": "execTransaction(address,uint256,bytes,uint8,uint256,uint256,uint256,address,address,bytes)",
      "arguments": [
        "0x19223058050D2C91E6e42158f0760340Fb3D41C3",
        "0",
        "0x610b59250000000000000000000000004b9193ef09a9d600c923b505d97af40fe65f7fea",
        "0",
        "0",
        "0",
        "0",
        "0x0000000000000000000000000000000000000000",
        "0x0000000000000000000000000000000000000000",
        "0x2a0a348fbdecb4b2190e5b222934fd7eeaec32f8547d00679b21292035ca51dc0bd975c57ae90aaba8fc166f969c00fc6e8598f56bd96a469be84a42c79020371b"
      ],
      "transaction": {
        "from": "0x3660362beb3a95ce16d981e7d30e1e025e741393",
        "to": "0x19223058050d2c91e6e42158f0760340fb3d41c3",
        "gas": "0x1af11",
        "value": "0x0",
        "input": "0x6a76120200000000000000000000000019223058050d2c91e6e42158f0760340fb3d41c30000000000000000000000000000000000000000000000000000000000000000000000000000000000000000000000000000000000000000000000000000014000000000000000000000000000000000000000000000000000000000000000000000000000000000000000000000000000000000000000000000000000000000000000000000000000000000000000000000000000000000000000000000000000000000000000000000000000000000000000000000000000000000000000000000000000000000000000000000000000000000000000000000000000000000000000000000000000000000000000000000000000000000000000000000000000000000000000000000000000000000000000000000000000000000000001a00000000000000000000000000000000000000000000000000000000000000024610b59250000000000000000000000004b9193ef09a9d600c923b505d97af40fe65f7fea0000000000000000000000000000000000000000000000000000000000000000000000000000000000000000000000000000000000000000000000412a0a348fbdecb4b2190e5b222934fd7eeaec32f8547d00679b21292035ca51dc0bd975c57ae90aaba8fc166f969c00fc6e8598f56bd96a469be84a42c79020371b00000000000000000000000000000000000000000000000000000000000000",
        "nonce": "0x51",
        "chainId": "0x61"
      },
      "additionalContracts": [],
      "isFixedGasLimit": false
    }
  ],
  "receipts": [
    {
      "status": "0x1",
      "cumulativeGasUsed": "0x1f498",
      "logs": [
        {
          "address": "0x19223058050d2c91e6e42158f0760340fb3d41c3",
          "topics": [
            "0xecdf3a3effea5783a3c4c2140e677577666428d44ed9d474a0b3a4c9943f8440",
            "0x0000000000000000000000004b9193ef09a9d600c923b505d97af40fe65f7fea"
          ],
          "data": "0x",
          "blockHash": "0xf0944e6f1cf8c7b58de3618feebc01b705c4317779fb5abea26a3bd89a127d7d",
          "blockNumber": "0x60c69c3",
          "blockTimestamp": "0x69dd34cc",
          "transactionHash": "0xad58014b7d6c39fea731849db960d976ed05798f95ccba357b20aa807bbfe241",
          "transactionIndex": "0x1",
          "logIndex": "0x0",
          "removed": false
        },
        {
          "address": "0x19223058050d2c91e6e42158f0760340fb3d41c3",
          "topics": [
            "0x442e715f626346e8c54381002da614f62bee8d27386535b2521ec8540898556e",
            "0x397e69f87244db216ee2698177b14375fc370f0be85123d5ab74b48d170a82c2"
          ],
          "data": "0x0000000000000000000000000000000000000000000000000000000000000000",
          "blockHash": "0xf0944e6f1cf8c7b58de3618feebc01b705c4317779fb5abea26a3bd89a127d7d",
          "blockNumber": "0x60c69c3",
          "blockTimestamp": "0x69dd34cc",
          "transactionHash": "0xad58014b7d6c39fea731849db960d976ed05798f95ccba357b20aa807bbfe241",
          "transactionIndex": "0x1",
          "logIndex": "0x1",
          "removed": false
        }
      ],
      "logsBloom": "0x00000000408000000000004040000000800000000000000000000000040000000000000000000000000000000000000000000000000000000000002000000000000000000000000000000000000008000000000000000000004004000000000000000000000000000000000000000000000000000000000000000000000000000000010000000000000000000000000000000000000000000000000000000000000000000000000000000000000004000000000000000000000000000000000000000000000000000000000000040000000000000000000000000000000000000000000000000800000000000000000000000000000800000000000000000000",
      "type": "0x2",
      "transactionHash": "0xad58014b7d6c39fea731849db960d976ed05798f95ccba357b20aa807bbfe241",
      "transactionIndex": "0x1",
      "blockHash": "0xf0944e6f1cf8c7b58de3618feebc01b705c4317779fb5abea26a3bd89a127d7d",
      "blockNumber": "0x60c69c3",
      "gasUsed": "0x13816",
      "effectiveGasPrice": "0x5f5e100",
      "from": "0x3660362beb3a95ce16d981e7d30e1e025e741393",
      "to": "0x19223058050d2c91e6e42158f0760340fb3d41c3",
      "contractAddress": null
    }
  ],
  "libraries": [],
  "pending": [],
  "returns": {},
  "timestamp": 1776104654679,
  "chain": 97,
  "commit": null
}