{
  "transactions": [
    {
      "hash": "0x5267cc91f1df96fcb44a89e35b722dd0299bf8f48d2bfcf760075ca22cecdd6c",
      "transactionType": "CALL",
      "contractName": null,
      "contractAddress": "0x19223058050d2c91e6e42158f0760340fb3d41c3",
      "function": "execTransaction(address,uint256,bytes,uint8,uint256,uint256,uint256,address,address,bytes)",
      "arguments": [
        "0x19223058050D2C91E6e42158f0760340Fb3D41C3",
        "0",
        "0x610b5925000000000000000000000000a2f4ed34ecf09bbab67486cd2f07ad7ad1b5339c",
        "0",
        "0",
        "0",
        "0",
        "0x0000000000000000000000000000000000000000",
        "0x0000000000000000000000000000000000000000",
        "0xcd49aed5f0deb67880cf58911b36e23fac1f97ef8d84288ed675359a75b8c1b654668b0fd489562d7752bd57dc6c617a38d4e750cd02fbe70c3cd7a1a8b100901b"
      ],
      "transaction": {
        "from": "0x3660362beb3a95ce16d981e7d30e1e025e741393",
        "to": "0x19223058050d2c91e6e42158f0760340fb3d41c3",
        "gas": "0x1af31",
        "value": "0x0",
        "input": "0x6a76120200000000000000000000000019223058050d2c91e6e42158f0760340fb3d41c30000000000000000000000000000000000000000000000000000000000000000000000000000000000000000000000000000000000000000000000000000014000000000000000000000000000000000000000000000000000000000000000000000000000000000000000000000000000000000000000000000000000000000000000000000000000000000000000000000000000000000000000000000000000000000000000000000000000000000000000000000000000000000000000000000000000000000000000000000000000000000000000000000000000000000000000000000000000000000000000000000000000000000000000000000000000000000000000000000000000000000000000000000000000000000000001a00000000000000000000000000000000000000000000000000000000000000024610b5925000000000000000000000000a2f4ed34ecf09bbab67486cd2f07ad7ad1b5339c000000000000000000000000000000000000000000000000000000000000000000000000000000000000000000000000000000000000000000000041cd49aed5f0deb67880cf58911b36e23fac1f97ef8d84288ed675359a75b8c1b654668b0fd489562d7752bd57dc6c617a38d4e750cd02fbe70c3cd7a1a8b100901b00000000000000000000000000000000000000000000000000000000000000",
        "nonce": "0x3f",
        "chainId": "0x61"
      },
      "additionalContracts": [],
      "isFixedGasLimit": false
    }
  ],
  "receipts": [
    {
      "status": "0x1",
      "cumulativeGasUsed": "0x1382e",
      "logs": [
        {
          "address": "0x19223058050d2c91e6e42158f0760340fb3d41c3",
          "topics": [
            "0xecdf3a3effea5783a3c4c2140e677577666428d44ed9d474a0b3a4c9943f8440",
            "0x000000000000000000000000a2f4ed34ecf09bbab67486cd2f07ad7ad1b5339c"
          ],
          "data": "0x",
          "blockHash": "0x4227ca5c367895741a379f834459ee364681a8ea85577cd8d08f48855628c166",
          "blockNumber": "0x60c5ced",
          "blockTimestamp": "0x69dd2f06",
          "transactionHash": "0x5267cc91f1df96fcb44a89e35b722dd0299bf8f48d2bfcf760075ca22cecdd6c",
          "transactionIndex": "0x0",
          "logIndex": "0x0",
          "removed": false
        },
        {
          "address": "0x19223058050d2c91e6e42158f0760340fb3d41c3",
          "topics": [
            "0x442e715f626346e8c54381002da614f62bee8d27386535b2521ec8540898556e",
            "0x328195a1eb226efe1ba65ec7251f79943f73172d43afaf92864484d81f399a2f"
          ],
          "data": "0x0000000000000000000000000000000000000000000000000000000000000000",
          "blockHash": "0x4227ca5c367895741a379f834459ee364681a8ea85577cd8d08f48855628c166",
          "blockNumber": "0x60c5ced",
          "blockTimestamp": "0x69dd2f06",
          "transactionHash": "0x5267cc91f1df96fcb44a89e35b722dd0299bf8f48d2bfcf760075ca22cecdd6c",
          "transactionIndex": "0x0",
          "logIndex": "0x1",
          "removed": false
        }
      ],
      "logsBloom": "0x00000000400000000000040000000000800000000000000000000000040000000000000000000000000000000000000000000000000000000000000000000000000000000000000000000000000018000000000000000000004000000000000000000000000000000000000000000000000000000000000000000000000000000000010000000000000000000000000000000000000000000000000100000000000000000000000000000000000004000000000000000000000000000000000000000000000000000000000000040000000000000000000000200100000000000000000000000800000000000000000000000000080000000000000000000000",
      "type": "0x2",
      "transactionHash": "0x5267cc91f1df96fcb44a89e35b722dd0299bf8f48d2bfcf760075ca22cecdd6c",
      "transactionIndex": "0x0",
      "blockHash": "0x4227ca5c367895741a379f834459ee364681a8ea85577cd8d08f48855628c166",
      "blockNumber": "0x60c5ced",
      "gasUsed": "0x1382e",
      "effectiveGasPrice": "0x7bfa480",
      "from": "0x3660362beb3a95ce16d981e7d30e1e025e741393",
      "to": "0x19223058050d2c91e6e42158f0760340fb3d41c3",
      "contractAddress": null
    }
  ],
  "libraries": [],
  "pending": [],
  "returns": {},
  "timestamp": 1776103176070,
  "chain": 97,
  "commit": null
}