{
  "transactions": [
    {
      "hash": "0xb12f57e4a658ecf4bd73006bf9b088aafcc3132ab378272df7d475274f245de9",
      "transactionType": "CALL",
      "contractName": null,
      "contractAddress": "0x19223058050d2c91e6e42158f0760340fb3d41c3",
      "function": "execTransaction(address,uint256,bytes,uint8,uint256,uint256,uint256,address,address,bytes)",
      "arguments": [
        "0x19223058050D2C91E6e42158f0760340Fb3D41C3",
        "0",
        "0x610b5925000000000000000000000000b8026d7acb032e3ae24b159fd1a9013788fd06b0",
        "0",
        "0",
        "0",
        "0",
        "0x0000000000000000000000000000000000000000",
        "0x0000000000000000000000000000000000000000",
        "0x5506ddf7bf4a065aafcaba5f1ed2e89fc79b497f9f81816fca4a66f7b29a528507fc4b2b469bea714ac205255e9eeb0eff83ef1136e3a225d3ad33135d06ca371c"
      ],
      "transaction": {
        "from": "0x3660362beb3a95ce16d981e7d30e1e025e741393",
        "to": "0x19223058050d2c91e6e42158f0760340fb3d41c3",
        "gas": "0x1c8a1",
        "value": "0x0",
        "input": "0x6a76120200000000000000000000000019223058050d2c91e6e42158f0760340fb3d41c30000000000000000000000000000000000000000000000000000000000000000000000000000000000000000000000000000000000000000000000000000014000000000000000000000000000000000000000000000000000000000000000000000000000000000000000000000000000000000000000000000000000000000000000000000000000000000000000000000000000000000000000000000000000000000000000000000000000000000000000000000000000000000000000000000000000000000000000000000000000000000000000000000000000000000000000000000000000000000000000000000000000000000000000000000000000000000000000000000000000000000000000000000000000000000000001a00000000000000000000000000000000000000000000000000000000000000024610b5925000000000000000000000000b8026d7acb032e3ae24b159fd1a9013788fd06b00000000000000000000000000000000000000000000000000000000000000000000000000000000000000000000000000000000000000000000000415506ddf7bf4a065aafcaba5f1ed2e89fc79b497f9f81816fca4a66f7b29a528507fc4b2b469bea714ac205255e9eeb0eff83ef1136e3a225d3ad33135d06ca371c00000000000000000000000000000000000000000000000000000000000000",
        "nonce": "0x63",
        "chainId": "0x61"
      },
      "additionalContracts": [],
      "isFixedGasLimit": false
    }
  ],
  "receipts": [
    {
      "status": "0x1",
      "cumulativeGasUsed": "0x1383a",
      "logs": [
        {
          "address": "0x19223058050d2c91e6e42158f0760340fb3d41c3",
          "topics": [
            "0xecdf3a3effea5783a3c4c2140e677577666428d44ed9d474a0b3a4c9943f8440",
            "0x000000000000000000000000b8026d7acb032e3ae24b159fd1a9013788fd06b0"
          ],
          "data": "0x",
          "blockHash": "0x63a13fc9bb05bc5765b31302c33ca7b0a9048ac733661a1c6d4a98df3909c83e",
          "blockNumber": "0x60c6c17",
          "blockTimestamp": "0x69dd35d8",
          "transactionHash": "0xb12f57e4a658ecf4bd73006bf9b088aafcc3132ab378272df7d475274f245de9",
          "transactionIndex": "0x0",
          "logIndex": "0x0",
          "removed": false
        },
        {
          "address": "0x19223058050d2c91e6e42158f0760340fb3d41c3",
          "topics": [
            "0x442e715f626346e8c54381002da614f62bee8d27386535b2521ec8540898556e",
            "0xfa00457142f34e92941e754debd6adbcbee66c3d16a7305746bed60e4999eb06"
          ],
          "data": "0x0000000000000000000000000000000000000000000000000000000000000000",
          "blockHash": "0x63a13fc9bb05bc5765b31302c33ca7b0a9048ac733661a1c6d4a98df3909c83e",
          "blockNumber": "0x60c6c17",
          "blockTimestamp": "0x69dd35d8",
          "transactionHash": "0xb12f57e4a658ecf4bd73006bf9b088aafcc3132ab378272df7d475274f245de9",
          "transactionIndex": "0x0",
          "logIndex": "0x1",
          "removed": false
        }
      ],
      "logsBloom": "0x00000000400000000000000000000000800000000000000000000000040000000000000000000000000000000000000000000000000000000000000001000000000000000000000000000000000008000000000000000000004000000000000000000000000000000000000000000000000000010000000000000000000000000000010000000000000000000000000000000000000000000000000000004000000000000000000000000000000004000000000000000000000000000000002000000000000000000000000000040000000000000000000000000000000000000000000000000800000000000000000000002000000000008000000000000000",
      "type": "0x2",
      "transactionHash": "0xb12f57e4a658ecf4bd73006bf9b088aafcc3132ab378272df7d475274f245de9",
      "transactionIndex": "0x0",
      "blockHash": "0x63a13fc9bb05bc5765b31302c33ca7b0a9048ac733661a1c6d4a98df3909c83e",
      "blockNumber": "0x60c6c17",
      "gasUsed": "0x1383a",
      "effectiveGasPrice": "0x5f5e100",
      "from": "0x3660362beb3a95ce16d981e7d30e1e025e741393",
      "to": "0x19223058050d2c91e6e42158f0760340fb3d41c3",
      "contractAddress": null
    }
  ],
  "libraries": [],
  "pending": [],
  "returns": {},
  "timestamp": 1776104922604,
  "chain": 97,
  "commit": null
}