{
  "transactions": [
    {
      "hash": "0x4bbdca025874b5768d0169a49860e5a825ebef413c206335333c78f08044d24c",
      "transactionType": "CALL",
      "contractName": null,
      "contractAddress": "0x19223058050d2c91e6e42158f0760340fb3d41c3",
      "function": "execTransaction(address,uint256,bytes,uint8,uint256,uint256,uint256,address,address,bytes)",
      "arguments": [
        "0x19223058050D2C91E6e42158f0760340Fb3D41C3",
        "0",
        "0x610b5925000000000000000000000000a03e2a4481c2a1e3805abe7eeda535fdb210c6f6",
        "0",
        "0",
        "0",
        "0",
        "0x0000000000000000000000000000000000000000",
        "0x0000000000000000000000000000000000000000",
        "0x618ac4c3b16f40c548f398ef17b1e33bb52a717e101e529194c94fc5c41590fb23b5e48b66c785616a2259414d47a9b870f330fb050aca79380d830ea976fb2f1c"
      ],
      "transaction": {
        "from": "0x3660362beb3a95ce16d981e7d30e1e025e741393",
        "to": "0x19223058050d2c91e6e42158f0760340fb3d41c3",
        "gas": "0x20b86",
        "value": "0x0",
        "input": "0x6a76120200000000000000000000000019223058050d2c91e6e42158f0760340fb3d41c30000000000000000000000000000000000000000000000000000000000000000000000000000000000000000000000000000000000000000000000000000014000000000000000000000000000000000000000000000000000000000000000000000000000000000000000000000000000000000000000000000000000000000000000000000000000000000000000000000000000000000000000000000000000000000000000000000000000000000000000000000000000000000000000000000000000000000000000000000000000000000000000000000000000000000000000000000000000000000000000000000000000000000000000000000000000000000000000000000000000000000000000000000000000000000000001a00000000000000000000000000000000000000000000000000000000000000024610b5925000000000000000000000000a03e2a4481c2a1e3805abe7eeda535fdb210c6f6000000000000000000000000000000000000000000000000000000000000000000000000000000000000000000000000000000000000000000000041618ac4c3b16f40c548f398ef17b1e33bb52a717e101e529194c94fc5c41590fb23b5e48b66c785616a2259414d47a9b870f330fb050aca79380d830ea976fb2f1c00000000000000000000000000000000000000000000000000000000000000",
        "nonce": "0x19",
        "chainId": "0x61"
      },
      "additionalContracts": [],
      "isFixedGasLimit": false
    }
  ],
  "receipts": [
    {
      "status": "0x1",
      "cumulativeGasUsed": "0x17b06",
      "logs": [
        {
          "address": "0x19223058050d2c91e6e42158f0760340fb3d41c3",
          "topics": [
            "0xecdf3a3effea5783a3c4c2140e677577666428d44ed9d474a0b3a4c9943f8440",
            "0x000000000000000000000000a03e2a4481c2a1e3805abe7eeda535fdb210c6f6"
          ],
          "data": "0x",
          "blockHash": "0x13fad8754eec1af55fc6b362aa7dadd8bd62cacb7deeef728b43c3bbc346ffbd",
          "blockNumber": "0x60c297f",
          "blockTimestamp": "0x69dd17e1",
          "transactionHash": "0x4bbdca025874b5768d0169a49860e5a825ebef413c206335333c78f08044d24c",
          "transactionIndex": "0x0",
          "logIndex": "0x0",
          "removed": false
        },
        {
          "address": "0x19223058050d2c91e6e42158f0760340fb3d41c3",
          "topics": [
            "0x442e715f626346e8c54381002da614f62bee8d27386535b2521ec8540898556e",
            "0x887451c0a878e0035a10f563149a3e35bffa111515661516acc801bf743fee4b"
          ],
          "data": "0x0000000000000000000000000000000000000000000000000000000000000000",
          "blockHash": "0x13fad8754eec1af55fc6b362aa7dadd8bd62cacb7deeef728b43c3bbc346ffbd",
          "blockNumber": "0x60c297f",
          "blockTimestamp": "0x69dd17e1",
          "transactionHash": "0x4bbdca025874b5768d0169a49860e5a825ebef413c206335333c78f08044d24c",
          "transactionIndex": "0x0",
          "logIndex": "0x1",
          "removed": false
        }
      ],
      "logsBloom": "0x00000000400000000000000000010000800000000000000000000000040000000000000000000000000000000080000000000000000000000000000000000000000000000000000000000000000008000000000000000000004000000000000000000000000800000008000000000000000000000000000000000000000000000000010000000000000000000000000000000000000000000000000000000000000000000000000000000000000004000000000000000000000000000000000000000000000000000000000000040000000000000000000000040800000000000000000000000800000000000000000000000000000000000000000000000000",
      "type": "0x2",
      "transactionHash": "0x4bbdca025874b5768d0169a49860e5a825ebef413c206335333c78f08044d24c",
      "transactionIndex": "0x0",
      "blockHash": "0x13fad8754eec1af55fc6b362aa7dadd8bd62cacb7deeef728b43c3bbc346ffbd",
      "blockNumber": "0x60c297f",
      "gasUsed": "0x17b06",
      "effectiveGasPrice": "0x7270e00",
      "from": "0x3660362beb3a95ce16d981e7d30e1e025e741393",
      "to": "0x19223058050d2c91e6e42158f0760340fb3d41c3",
      "contractAddress": null
    }
  ],
  "libraries": [],
  "pending": [],
  "returns": {},
  "timestamp": 1776097251294,
  "chain": 97,
  "commit": null
}