{
  "transactions": [
    {
      "hash": "0x09dde3e991e78aaed49cfe6fac88daca2d3decfad9023b5ea32e20093072ba6b",
      "transactionType": "CALL",
      "contractName": null,
      "contractAddress": "0x19223058050d2c91e6e42158f0760340fb3d41c3",
      "function": "execTransaction(address,uint256,bytes,uint8,uint256,uint256,uint256,address,address,bytes)",
      "arguments": [
        "0x19223058050D2C91E6e42158f0760340Fb3D41C3",
        "0",
        "0x610b5925000000000000000000000000e963752ad278ff5185e16c46bb75c6c8b87641d6",
        "0",
        "0",
        "0",
        "0",
        "0x0000000000000000000000000000000000000000",
        "0x0000000000000000000000000000000000000000",
        "0x401d76c0e5bca1cca207f86188b2025399567895f7ce7bf4b1b9fd02c52a19c447f1e7b1414325f37d2013cb6b796570bcaf57f3ab57395f53045b4decd76c741c"
      ],
      "transaction": {
        "from": "0x3660362beb3a95ce16d981e7d30e1e025e741393",
        "to": "0x19223058050d2c91e6e42158f0760340fb3d41c3",
        "gas": "0x1c8a1",
        "value": "0x0",
        "input": "0x6a76120200000000000000000000000019223058050d2c91e6e42158f0760340fb3d41c30000000000000000000000000000000000000000000000000000000000000000000000000000000000000000000000000000000000000000000000000000014000000000000000000000000000000000000000000000000000000000000000000000000000000000000000000000000000000000000000000000000000000000000000000000000000000000000000000000000000000000000000000000000000000000000000000000000000000000000000000000000000000000000000000000000000000000000000000000000000000000000000000000000000000000000000000000000000000000000000000000000000000000000000000000000000000000000000000000000000000000000000000000000000000000000001a00000000000000000000000000000000000000000000000000000000000000024610b5925000000000000000000000000e963752ad278ff5185e16c46bb75c6c8b87641d6000000000000000000000000000000000000000000000000000000000000000000000000000000000000000000000000000000000000000000000041401d76c0e5bca1cca207f86188b2025399567895f7ce7bf4b1b9fd02c52a19c447f1e7b1414325f37d2013cb6b796570bcaf57f3ab57395f53045b4decd76c741c00000000000000000000000000000000000000000000000000000000000000",
        "nonce": "0x76",
        "chainId": "0x61"
      },
      "additionalContracts": [],
      "isFixedGasLimit": false
    }
  ],
  "receipts": [
    {
      "status": "0x1",
      "cumulativeGasUsed": "0x49ef2e",
      "logs": [
        {
          "address": "0x19223058050d2c91e6e42158f0760340fb3d41c3",
          "topics": [
            "0xecdf3a3effea5783a3c4c2140e677577666428d44ed9d474a0b3a4c9943f8440",
            "0x000000000000000000000000e963752ad278ff5185e16c46bb75c6c8b87641d6"
          ],
          "data": "0x",
          "blockHash": "0xdc358c460a97b02e5ff14dcd437ee637da262f55c224a605ed9429904a3f22d2",
          "blockNumber": "0x60c7157",
          "blockTimestamp": "0x69dd3835",
          "transactionHash": "0x09dde3e991e78aaed49cfe6fac88daca2d3decfad9023b5ea32e20093072ba6b",
          "transactionIndex": "0x4",
          "logIndex": "0x18",
          "removed": false
        },
        {
          "address": "0x19223058050d2c91e6e42158f0760340fb3d41c3",
          "topics": [
            "0x442e715f626346e8c54381002da614f62bee8d27386535b2521ec8540898556e",
            "0xc2badd3e3bec6cebd0a226f00a0197fadc963c25b10da5f579b32283867a2511"
          ],
          "data": "0x0000000000000000000000000000000000000000000000000000000000000000",
          "blockHash": "0xdc358c460a97b02e5ff14dcd437ee637da262f55c224a605ed9429904a3f22d2",
          "blockNumber": "0x60c7157",
          "blockTimestamp": "0x69dd3835",
          "transactionHash": "0x09dde3e991e78aaed49cfe6fac88daca2d3decfad9023b5ea32e20093072ba6b",
          "transactionIndex": "0x4",
          "logIndex": "0x19",
          "removed": false
        }
      ],
      "logsBloom": "0x00000000400000000000000000000000820000000000000000000000040000000000000000000000000000000000000000000000000000000000000000000000000000000000000000000000000008000000000000000000004000000000000000000000000000000000000000000000000000000000000000000000000000000000010000000000040010000000000000000000000000000000002000000000000000000000000000000000000004000000000000000000000000000000000000000000000000000000000000040000000000000000000000000000000000000000000000000800000000000000400000000000000000200000000000000000",
      "type": "0x2",
      "transactionHash": "0x09dde3e991e78aaed49cfe6fac88daca2d3decfad9023b5ea32e20093072ba6b",
      "transactionIndex": "0x4",
      "blockHash": "0xdc358c460a97b02e5ff14dcd437ee637da262f55c224a605ed9429904a3f22d2",
      "blockNumber": "0x60c7157",
      "gasUsed": "0x1383a",
      "effectiveGasPrice": "0x3b9aca00",
      "from": "0x3660362beb3a95ce16d981e7d30e1e025e741393",
      "to": "0x19223058050d2c91e6e42158f0760340fb3d41c3",
      "contractAddress": null
    }
  ],
  "libraries": [],
  "pending": [],
  "returns": {},
  "timestamp": 1776105527487,
  "chain": 97,
  "commit": null
}